{
  "_format": "hh3-artifact-1",
  "contractName": "TokenVesting",
  "sourceName": "contracts/TokenVesting.sol",
  "abi": [
    {
      "inputs": [
        {
          "internalType": "address",
          "name": "_beneficiary",
          "type": "address"
        },
        {
          "internalType": "address",
          "name": "_token",
          "type": "address"
        },
        {
          "internalType": "uint256",
          "name": "_start",
          "type": "uint256"
        },
        {
          "internalType": "uint256",
          "name": "_duration",
          "type": "uint256"
        },
        {
          "internalType": "uint256",
          "name": "_cliffDuration",
          "type": "uint256"
        },
        {
          "internalType": "uint256",
          "name": "_totalAllocation",
          "type": "uint256"
        }
      ],
      "stateMutability": "nonpayable",
      "type": "constructor"
    },
    {
      "inputs": [],
      "name": "beneficiary",
      "outputs": [
        {
          "internalType": "address",
          "name": "",
          "type": "address"
        }
      ],
      "stateMutability": "view",
      "type": "function"
    },
    {
      "inputs": [],
      "name": "claim",
      "outputs": [],
      "stateMutability": "nonpayable",
      "type": "function"
    },
    {
      "inputs": [],
      "name": "cliffDuration",
      "outputs": [
        {
          "internalType": "uint256",
          "name": "",
          "type": "uint256"
        }
      ],
      "stateMutability": "view",
      "type": "function"
    },
    {
      "inputs": [],
      "name": "duration",
      "outputs": [
        {
          "internalType": "uint256",
          "name": "",
          "type": "uint256"
        }
      ],
      "stateMutability": "view",
      "type": "function"
    },
    {
      "inputs": [],
      "name": "fund",
      "outputs": [],
      "stateMutability": "nonpayable",
      "type": "function"
    },
    {
      "inputs": [],
      "name": "funded",
      "outputs": [
        {
          "internalType": "bool",
          "name": "",
          "type": "bool"
        }
      ],
      "stateMutability": "view",
      "type": "function"
    },
    {
      "inputs": [],
      "name": "getClaimableAmount",
      "outputs": [
        {
          "internalType": "uint256",
          "name": "",
          "type": "uint256"
        }
      ],
      "stateMutability": "view",
      "type": "function"
    },
    {
      "inputs": [],
      "name": "getVestedAmount",
      "outputs": [
        {
          "internalType": "uint256",
          "name": "",
          "type": "uint256"
        }
      ],
      "stateMutability": "view",
      "type": "function"
    },
    {
      "inputs": [],
      "name": "owner",
      "outputs": [
        {
          "internalType": "address",
          "name": "",
          "type": "address"
        }
      ],
      "stateMutability": "view",
      "type": "function"
    },
    {
      "inputs": [
        {
          "internalType": "uint256",
          "name": "amount",
          "type": "uint256"
        }
      ],
      "name": "partialClaim",
      "outputs": [],
      "stateMutability": "nonpayable",
      "type": "function"
    },
    {
      "inputs": [],
      "name": "released",
      "outputs": [
        {
          "internalType": "uint256",
          "name": "",
          "type": "uint256"
        }
      ],
      "stateMutability": "view",
      "type": "function"
    },
    {
      "inputs": [],
      "name": "start",
      "outputs": [
        {
          "internalType": "uint256",
          "name": "",
          "type": "uint256"
        }
      ],
      "stateMutability": "view",
      "type": "function"
    },
    {
      "inputs": [],
      "name": "token",
      "outputs": [
        {
          "internalType": "contract MyToken",
          "name": "",
          "type": "address"
        }
      ],
      "stateMutability": "view",
      "type": "function"
    },
    {
      "inputs": [],
      "name": "totalAllocation",
      "outputs": [
        {
          "internalType": "uint256",
          "name": "",
          "type": "uint256"
        }
      ],
      "stateMutability": "view",
      "type": "function"
    }
  ],
  "bytecode": "0x608060405234801561000f575f5ffd5b506040516117d03803806117d083398181016040528101906100319190610315565b5f73ffffffffffffffffffffffffffffffffffffffff168673ffffffffffffffffffffffffffffffffffffffff160361009f576040517f08c379a0000000000000000000000000000000000000000000000000000000008152600401610096906103f8565b60405180910390fd5b8560015f6101000a81548173ffffffffffffffffffffffffffffffffffffffff021916908373ffffffffffffffffffffffffffffffffffffffff1602179055505f73ffffffffffffffffffffffffffffffffffffffff168573ffffffffffffffffffffffffffffffffffffffff160361014d576040517f08c379a000000000000000000000000000000000000000000000000000000000815260040161014490610460565b60405180910390fd5b8460025f6101000a81548173ffffffffffffffffffffffffffffffffffffffff021916908373ffffffffffffffffffffffffffffffffffffffff160217905550836003819055505f83116101d6576040517f08c379a00000000000000000000000000000000000000000000000000000000081526004016101cd906104c8565b60405180910390fd5b826005819055506005548210610221576040517f08c379a000000000000000000000000000000000000000000000000000000000815260040161021890610556565b60405180910390fd5b816004819055505f8111610233575f5ffd5b80600681905550335f5f6101000a81548173ffffffffffffffffffffffffffffffffffffffff021916908373ffffffffffffffffffffffffffffffffffffffff160217905550505050505050610574565b5f5ffd5b5f73ffffffffffffffffffffffffffffffffffffffff82169050919050565b5f6102b182610288565b9050919050565b6102c1816102a7565b81146102cb575f5ffd5b50565b5f815190506102dc816102b8565b92915050565b5f819050919050565b6102f4816102e2565b81146102fe575f5ffd5b50565b5f8151905061030f816102eb565b92915050565b5f5f5f5f5f5f60c0878903121561032f5761032e610284565b5b5f61033c89828a016102ce565b965050602061034d89828a016102ce565b955050604061035e89828a01610301565b945050606061036f89828a01610301565b935050608061038089828a01610301565b92505060a061039189828a01610301565b9150509295509295509295565b5f82825260208201905092915050565b7f62656e65666963696172792061646472657373206973203000000000000000005f82015250565b5f6103e260188361039e565b91506103ed826103ae565b602082019050919050565b5f6020820190508181035f83015261040f816103d6565b9050919050565b7f746f6b656e2061646472657373206973203000000000000000000000000000005f82015250565b5f61044a60128361039e565b915061045582610416565b602082019050919050565b5f6020820190508181035f8301526104778161043e565b9050919050565b7f6475726174696f6e2069732030000000000000000000000000000000000000005f82015250565b5f6104b2600d8361039e565b91506104bd8261047e565b602082019050919050565b5f6020820190508181035f8301526104df816104a6565b9050919050565b7f636c696666206475726174696f6e2063616e6e6f74206265206d6f72652074685f8201527f616e20746f74616c206475726174696f6e000000000000000000000000000000602082015250565b5f61054060318361039e565b915061054b826104e6565b604082019050919050565b5f6020820190508181035f83015261056d81610534565b9050919050565b61124f806105815f395ff3fe608060405234801561000f575f5ffd5b50600436106100e8575f3560e01c8063b51c2de01161008a578063c354bd6e11610064578063c354bd6e146101ee578063d85349f71461020c578063f3a504f21461022a578063fc0c546a14610248576100e8565b8063b51c2de0146101aa578063b60d4288146101c6578063be9a6555146101d0576100e8565b806379203dc4116100c657806379203dc4146101325780638da5cb5b14610150578063961325211461016e5780639f2d9f2a1461018c576100e8565b80630fb5a6b4146100ec57806338af3eed1461010a5780634e71d92d14610128575b5f5ffd5b6100f4610266565b6040516101019190610ae8565b60405180910390f35b61011261026c565b60405161011f9190610b40565b60405180910390f35b610130610291565b005b61013a6104e6565b6040516101479190610ae8565b60405180910390f35b6101586104ec565b6040516101659190610b40565b60405180910390f35b610176610510565b6040516101839190610ae8565b60405180910390f35b610194610516565b6040516101a19190610ae8565b60405180910390f35b6101c460048036038101906101bf9190610b87565b6105b8565b005b6101ce610851565b005b6101d8610a72565b6040516101e59190610ae8565b60405180910390f35b6101f6610a78565b6040516102039190610ae8565b60405180910390f35b610214610a93565b6040516102219190610ae8565b60405180910390f35b610232610a99565b60405161023f9190610bcc565b60405180910390f35b610250610aab565b60405161025d9190610c40565b60405180910390f35b60055481565b60015f9054906101000a900473ffffffffffffffffffffffffffffffffffffffff1681565b60015f9054906101000a900473ffffffffffffffffffffffffffffffffffffffff1673ffffffffffffffffffffffffffffffffffffffff163373ffffffffffffffffffffffffffffffffffffffff1614610320576040517f08c379a000000000000000000000000000000000000000000000000000000000815260040161031790610cb3565b60405180910390fd5b6004546003546103309190610cfe565b421015610372576040517f08c379a000000000000000000000000000000000000000000000000000000000815260040161036990610d7b565b60405180910390fd5b60085f9054906101000a900460ff166103c0576040517f08c379a00000000000000000000000000000000000000000000000000000000081526004016103b790610de3565b60405180910390fd5b5f6103c9610a78565b90505f811161040d576040517f08c379a000000000000000000000000000000000000000000000000000000000815260040161040490610e4b565b60405180910390fd5b8060075f82825461041e9190610cfe565b9250508190555060025f9054906101000a900473ffffffffffffffffffffffffffffffffffffffff1673ffffffffffffffffffffffffffffffffffffffff1663a9059cbb60015f9054906101000a900473ffffffffffffffffffffffffffffffffffffffff16836040518363ffffffff1660e01b81526004016104a2929190610e69565b6020604051808303815f875af11580156104be573d5f5f3e3d5ffd5b505050506040513d601f19601f820116820180604052508101906104e29190610eba565b5050565b60065481565b5f5f9054906101000a900473ffffffffffffffffffffffffffffffffffffffff1681565b60075481565b5f6004546003546105279190610cfe565b421015610569576040517f08c379a000000000000000000000000000000000000000000000000000000000815260040161056090610d7b565b60405180910390fd5b6005546003546105799190610cfe565b42111561058a5760065490506105b5565b6005546003544261059b9190610ee5565b6006546105a89190610f18565b6105b29190610f86565b90505b90565b60015f9054906101000a900473ffffffffffffffffffffffffffffffffffffffff1673ffffffffffffffffffffffffffffffffffffffff163373ffffffffffffffffffffffffffffffffffffffff1614610647576040517f08c379a000000000000000000000000000000000000000000000000000000000815260040161063e90610cb3565b60405180910390fd5b6004546003546106579190610cfe565b421015610699576040517f08c379a000000000000000000000000000000000000000000000000000000000815260040161069090610d7b565b60405180910390fd5b60085f9054906101000a900460ff166106e7576040517f08c379a00000000000000000000000000000000000000000000000000000000081526004016106de90610de3565b60405180910390fd5b5f6106f0610a78565b90505f8111610734576040517f08c379a000000000000000000000000000000000000000000000000000000000815260040161072b90610e4b565b60405180910390fd5b80821115610777576040517f08c379a000000000000000000000000000000000000000000000000000000000815260040161076e90611000565b60405180910390fd5b8160075f8282546107889190610cfe565b9250508190555060025f9054906101000a900473ffffffffffffffffffffffffffffffffffffffff1673ffffffffffffffffffffffffffffffffffffffff1663a9059cbb60015f9054906101000a900473ffffffffffffffffffffffffffffffffffffffff16846040518363ffffffff1660e01b815260040161080c929190610e69565b6020604051808303815f875af1158015610828573d5f5f3e3d5ffd5b505050506040513d601f19601f8201168201806040525081019061084c9190610eba565b505050565b3373ffffffffffffffffffffffffffffffffffffffff165f5f9054906101000a900473ffffffffffffffffffffffffffffffffffffffff1673ffffffffffffffffffffffffffffffffffffffff16146108df576040517f08c379a00000000000000000000000000000000000000000000000000000000081526004016108d69061108e565b60405180910390fd5b60085f9054906101000a900460ff161561092e576040517f08c379a0000000000000000000000000000000000000000000000000000000008152600401610925906110f6565b60405180910390fd5b5f60065411610972576040517f08c379a00000000000000000000000000000000000000000000000000000000081526004016109699061115e565b60405180910390fd5b5f60025f9054906101000a900473ffffffffffffffffffffffffffffffffffffffff1673ffffffffffffffffffffffffffffffffffffffff166323b872dd33306006546040518463ffffffff1660e01b81526004016109d39392919061117c565b6020604051808303815f875af11580156109ef573d5f5f3e3d5ffd5b505050506040513d601f19601f82011682018060405250810190610a139190610eba565b905080610a55576040517f08c379a0000000000000000000000000000000000000000000000000000000008152600401610a4c906111fb565b60405180910390fd5b600160085f6101000a81548160ff02191690831515021790555050565b60035481565b5f600754610a84610516565b610a8e9190610ee5565b905090565b60045481565b60085f9054906101000a900460ff1681565b60025f9054906101000a900473ffffffffffffffffffffffffffffffffffffffff1681565b5f819050919050565b610ae281610ad0565b82525050565b5f602082019050610afb5f830184610ad9565b92915050565b5f73ffffffffffffffffffffffffffffffffffffffff82169050919050565b5f610b2a82610b01565b9050919050565b610b3a81610b20565b82525050565b5f602082019050610b535f830184610b31565b92915050565b5f5ffd5b610b6681610ad0565b8114610b70575f5ffd5b50565b5f81359050610b8181610b5d565b92915050565b5f60208284031215610b9c57610b9b610b59565b5b5f610ba984828501610b73565b91505092915050565b5f8115159050919050565b610bc681610bb2565b82525050565b5f602082019050610bdf5f830184610bbd565b92915050565b5f819050919050565b5f610c08610c03610bfe84610b01565b610be5565b610b01565b9050919050565b5f610c1982610bee565b9050919050565b5f610c2a82610c0f565b9050919050565b610c3a81610c20565b82525050565b5f602082019050610c535f830184610c31565b92915050565b5f82825260208201905092915050565b7f63616c6c61626c65206f6e6c79206279207468652062656e65666963696172795f82015250565b5f610c9d602083610c59565b9150610ca882610c69565b602082019050919050565b5f6020820190508181035f830152610cca81610c91565b9050919050565b7f4e487b71000000000000000000000000000000000000000000000000000000005f52601160045260245ffd5b5f610d0882610ad0565b9150610d1383610ad0565b9250828201905080821115610d2b57610d2a610cd1565b5b92915050565b7f7761697420666f722074686520636c69666620706572696f6420746f20656e645f82015250565b5f610d65602083610c59565b9150610d7082610d31565b602082019050919050565b5f6020820190508181035f830152610d9281610d59565b9050919050565b7f6e6f742066756e646564207965740000000000000000000000000000000000005f82015250565b5f610dcd600e83610c59565b9150610dd882610d99565b602082019050919050565b5f6020820190508181035f830152610dfa81610dc1565b9050919050565b7f6e6f7468696e6720746f20636c61696d000000000000000000000000000000005f82015250565b5f610e35601083610c59565b9150610e4082610e01565b602082019050919050565b5f6020820190508181035f830152610e6281610e29565b9050919050565b5f604082019050610e7c5f830185610b31565b610e896020830184610ad9565b9392505050565b610e9981610bb2565b8114610ea3575f5ffd5b50565b5f81519050610eb481610e90565b92915050565b5f60208284031215610ecf57610ece610b59565b5b5f610edc84828501610ea6565b91505092915050565b5f610eef82610ad0565b9150610efa83610ad0565b9250828203905081811115610f1257610f11610cd1565b5b92915050565b5f610f2282610ad0565b9150610f2d83610ad0565b9250828202610f3b81610ad0565b91508282048414831517610f5257610f51610cd1565b5b5092915050565b7f4e487b71000000000000000000000000000000000000000000000000000000005f52601260045260245ffd5b5f610f9082610ad0565b9150610f9b83610ad0565b925082610fab57610faa610f59565b5b828204905092915050565b7f746f6f2062696720746f20626520636c61696d656400000000000000000000005f82015250565b5f610fea601583610c59565b9150610ff582610fb6565b602082019050919050565b5f6020820190508181035f83015261101781610fde565b9050919050565b7f75736572206973206e6f7420746865206f776e65722c20616374696f6e206e6f5f8201527f74207065726d6974746564000000000000000000000000000000000000000000602082015250565b5f611078602b83610c59565b91506110838261101e565b604082019050919050565b5f6020820190508181035f8301526110a58161106c565b9050919050565b7f616c72656164792066756e6465640000000000000000000000000000000000005f82015250565b5f6110e0600e83610c59565b91506110eb826110ac565b602082019050919050565b5f6020820190508181035f83015261110d816110d4565b9050919050565b7f696e76616c696420616c6c6f636174696f6e00000000000000000000000000005f82015250565b5f611148601283610c59565b915061115382611114565b602082019050919050565b5f6020820190508181035f8301526111758161113c565b9050919050565b5f60608201905061118f5f830186610b31565b61119c6020830185610b31565b6111a96040830184610ad9565b949350505050565b7f66756e64696e67206661696c65640000000000000000000000000000000000005f82015250565b5f6111e5600e83610c59565b91506111f0826111b1565b602082019050919050565b5f6020820190508181035f830152611212816111d9565b905091905056fea2646970667358221220c6424cfdedbe71e630b8db9b075932a53de14aa8b58df64a781d2aafde9850b764736f6c634300081c0033",
  "linkReferences": {},
  "deployedLinkReferences": {},
  "immutableReferences": {},
  "inputSourceName": "project/contracts/TokenVesting.sol",
  "buildInfoId": "solc-0_8_28-ae8511a9d07f43b225fecf1c711f2f5c10420b37"
}